:100000000C9434000C9449000C9449000C94490061
:100010000C9449000C9449000C9449000C9449003C
:100020000C9449000C9449000C9449000C9449002C
:100030000C9449000C9449000C9449000C9449001C
:100040000C9449000C9449000C9449000C9449000C
:100050000C9449000C9449000C9449000C944900FC
:100060000C9449000C94490011241FBECFEFD8E036
:10007000DEBFCDBF11E0A0E0B1E0ECEAF1E002C0EC
:1000800005900D92A034B107D9F70E946B000C9433
:10009000D4000C94000081E890E09093C500809318
:1000A000C400E1ECF0E08081886080838081806121
:1000B000808386E08093C20008959091C00095FFF0
:1000C000FCCF8093C60008958091C00087FFFCCFCD
:1000D0008091C6000895CF93DF93CDB7DEB76C97BC
:1000E0000FB6F894DEBF0FBECDBF0E944B0088E173
:1000F000382E08E311E09AE3E92E91E0F92E2EE381
:10010000C22E21E0D22E5E018CE1A80EB11C39E195
:10011000232E4CE3842E41E0942E3E019DE1690E96
:10012000711C0E946400982F9B7F913631F08936B4
:1001300021F08F3611F08537E9F4E0E0F1E0DE01DF
:100140001196932D01900D929A95E1F7198E1A8EC2
:100150001B8E1C8E888F098FEA8ECB8EFE01319606
:100160002F01F20181912F010E945D004A145B046E
:10017000C1F7D7CFECE1F1E0DE011196922D0190AD
:100180000D929A95E1F71A8E1B8E1C8E898F8A8E9E
:10019000CE0101962C01F20181912F010E945D0098
:0C01A00046145704C1F7BDCFF894FFCF00
:1001AC00596F7520656E746572656420746865207E
:1001BC00766F77656C202200000000005468617433
:1001CC00207761732074686520636F6E736F6E6146
:1001DC006E7420220000000022000D00220D0A0087
:00000001FF
