:100000000C9434000C943E000C943E000C943E0082
:100010000C943E000C943E000C943E000C943E0068
:100020000C943E000C943E000C943E000C943E0058
:100030000C943E000C943E000C943E000C943E0048
:100040000C943E000C943E000C943E000C943E0038
:100050000C943E000C943E000C943E000C943E0028
:100060000C943E000C943E0011241FBECFEFD8E04C
:10007000DEBFCDBF0E9460000C9463000C940000B2
:1000800081E890E09093C5008093C400E1ECF0E03B
:1000900080818860808380818061808386E0809316
:1000A000C20008959091C00095FFFCCF8093C600D8
:1000B00008958091C00087FFFCCF8091C60008950D
:0A00C0000E944000FFCFF894FFCF2C
:00000001FF
