:100000000C9434000C943E000C943E000C943E0082
:100010000C943E000C943E000C943E000C943E0068
:100020000C943E000C943E000C943E000C943E0058
:100030000C943E000C943E000C943E000C943E0048
:100040000C943E000C943E000C943E000C943E0038
:100050000C943E000C943E000C943E000C943E0028
:100060000C943E000C943E0011241FBECFEFD8E04C
:10007000DEBFCDBF0E9440000C948B000C940000AA
:100080008AB18FEF8AB984B18F6B84B987B18F63DE
:1000900087B980E090E021E030E0883091057CF481
:1000A0006BB1A901082E01C0440F0A94EAF7642B32
:1000B0006BB95BB1409545234BB90196EECF80E01B
:1000C00090E08630910569F065B1A901082E01C064
:1000D000440F0A94EAF7642B65B955B1409545235E
:1000E00045B901968830910561F780E090E068B1EC
:1000F000A901082E01C0440F0A94EAF7642B68B9DD
:1001000058B14095452348B901968630910579F755
:0A01100080E090E0C2CFF894FFCF2A
:00000001FF
